:020000040800F2
:100000002013002001010008C5130008AD100008EE
:10001000C11300082D0E00081F1B0008000000007F
:100020000000000000000000000000009116000821
:100030006B0E000800000000391400084718000883
:100040001B0100081B0100081B0100081B01000820
:100050001B0100081B0100081B0100081B01000810
:100060001B0100081B0100081B0100081B01000800
:100070001B0100081B0100081B0100081B010008F0
:100080001B0100081B0100081B0100081B010008E0
:100090001B0100081B0100081B0100081B010008D0
:1000A0001B0100081B0100081B0100081B010008C0
:1000B000A91800081B0100081B0100081B0100080B
:1000C0001B0100081B0100081B0100081B010008A0
:1000D0001B010008391A00081B0100081B01000859
:1000E0001B0100081B0100081B010008DFF80CD0F1
:1000F00000F016FC00480047E140000820130020F3
:100100000648804706480047FEE7FEE7FEE7FEE7B1
:10011000FEE7FEE7FEE7FEE7FEE7FEE74918000818
:10012000ED000008421C10F8011B0029FBD1801AC9
:100130007047F0B480EA0102D40F4200B2EB410FE5
:1001400002D20246084611464A0042D0C30DDDB233
:10015000C1F3C752AD1A202D35DAC1F3160141F4AF
:10016000000204B15242C5F1200602FA06F12A410A
:100170001044B3EBD05F23D0C4B1012DA0EBC3502A
:1001800009DCF0BC4FF0004202EAC352DBB200F5DA
:10019000000000F022BB400000F1807000EBC35073
:1001A000A0F1807040EAD170490009E0490841EAB5
:1001B000C071A0EBC35000F50000400800EBC35035
:1001C000F0BC00F001BB6142012202EB4101001BC7
:1001D000F6E7F0BC704781F00041AAE780F00040EC
:1001E000A7E72DE9FE4F804681EA0300C00F0C46C9
:1001F000009021F0004123F00045B8EB0200A94136
:1002000005D24046214690461C460B46024623F046
:100210000040104347D0270DC7F30A00C3F30A512B
:100220000290401A019040286BDAC3F3130040F4A7
:10023000801B0098924620B10023D2EB030A63EBA7
:100240000B0B01985946C0F14002504600F08BFA62
:1002500006460D4650465946019A00F0A3FA10EBA7
:1002600008006141002487EA115284EAE7731A43C7
:1002700040D0009A62B3019A012A4FEA075215DC76
:10028000001B61EB02014FF0004202EA0752CDE988
:100290000042001C41F5801132462B4600F0DAFA8C
:1002A00003B0BDE8F08F40462146F9E7001B61EB43
:1002B0000201001C41F5801300185B412018A2F5D3
:1002C000001747EB030140EAD570B6196D4111E004
:1002D0006D084FEA360645EAC0754FEA0752001B23
:1002E00061EB0201001C41F5801149084FEA300022
:1002F0000019514132462B4603B0BDE8F04F00F0E3
:100300009ABA0098012240000023D0EB020263EB6E
:10031000E073009821464FEAE074B8EB000061EB0F
:100320000401E9E783F000435BE781F0004158E70F
:100330002DE9FE4F81EA030404F0004421F000415E
:1003400000944FF0000B23F0004350EA01045ED00C
:1003500052EA03045BD0C3F30A54C1F30A552C4498
:10036000A4F2F3340194A0FB0254C1F3130141F44D
:100370008011C3F3130343F4801301FB024400FB19
:10038000034E840A970A44EA815447EA8357A4FB40
:10039000076802958D0A05FB07854FEA932C04FB3D
:1003A0000C542705029D4FEA065847EA1637B5EB6D
:1003B00008056EEB070C870E920E47EA811742EA9A
:1003C0008312A7FB0201B6EB0B0164EB00042B0DBB
:1003D00043EA0C335E1844EB1C50DA465146E7FB07
:1003E0000201C5F313044FEA0B3343EA14534FEAF7
:1003F0000432019C43EA0603A4F10C040294009C1D
:10040000CDE900B400F026FA03B0BDE8F08F00207B
:100410000146F9E72DE9F04D81EA030404F0004BB1
:1004200021F0004514464FF0000A23F0004150EA45
:10043000050220D054EA01021DD0C5F30A57024636
:10044000C5F31303C1F31300C1F30A5640F480153A
:1004500043F48013A7EB0608101BD64608F2FD38BC
:1004600073EB050002D308F1010801E092185B412B
:10047000B8F1000F03DA00200146BDE8F08D00203E
:100480004FF48011064684460EE0171B73EB0507F8
:1004900005D3121B63EB050306434CEA010C490824
:1004A0004FEA300092185B4150EA0107EDD152EA61
:1004B000030012D082EA040083EA0501084305D054
:1004C000101BAB4106D20122002306E000224FF0B0
:1004D000004302E06FF0010253101AEB06004CEBF0
:1004E000085110EB0A0041EB0B01BDE8F04D00F0A4
:1004F000A2B9C10F80EAE0700844CA079623002120
:1005000000F06BB996230022114600F066B90EB5D3
:1005100040F2334102910021CDE900110A460B4619
:1005200000F098F903B000BD00F0004220F0004058
:10053000C10DC0F3160040F400007F2901DA00204D
:100540007047962903DCC1F19601C84001E0963955
:100550008840002AF4D04042704720F00040C10D8E
:10056000C0F3160040F400007F2901DA0020704734
:10057000962903DCC1F19601C8407047963988403E
:10058000704770B5C1F30A5201F000450024C1F371
:10059000130140F2FF3341F480119A4201DA002046
:1005A00070BD40F233439A42A2F2334203DC52421E
:1005B00000F0E8F800E090402C43F1D0404270BDDC
:1005C000C1F30A5210B5C1F3130140F2FF3341F4F5
:1005D00080119A4201DA002010BD40F233439A4262
:1005E000A2F2334203DC524200F0CCF810BD90403E
:1005F00010BD00F0004230F000400AD0C10D01F5FE
:100600006071C0F3160042EA0151C208400711436D
:10061000704700200146704730B5041E71F1000498
:1006200004DB4FF00044404264EB0101141E73F1FF
:10063000000405DB1C464FF00043524263EB040309
:100640008B4208BF824230BD30B5041E71F10004F8
:1006500004DB4FF00044404264EB0101141E73F1CF
:10066000000405DB1C464FF00043524263EB0403D9
:10067000994208BF904230BD01F0004330B421F0F0
:10068000004150EA010206D00A0DA2F56072C1F3E2
:100690001301002A02DC30BC00207047440F44EAFA
:1006A000C104C100E01830BC00EBC25000F08CB8AF
:1006B000002801DBC0F10040002901DBC1F100414D
:1006C00081427047002801DBC0F10040002901DBB6
:1006D000C1F100418842704730B50B460146002009
:1006E0002022012409E021FA02F59D4205D303FAF4
:1006F00002F5491B04FA02F52844151EA2F1010275
:10070000F1DC30BD2DE9F05F0546002092469B46A6
:1007100088460646814640241BE028464146474617
:10072000224600F02FF853465A46C01A914110D382
:1007300011461846224600F016F82D1A67EB0108FC
:100740004F4622460120002100F00DF817EB00096A
:100750004E41201EA4F10104DFDC484631462A4602
:100760004346BDE8F09F202A04DB203A00FA02F15C
:10077000002070479140C2F1200320FA03F319438F
:1007800090407047202A04DB203A21FA02F0002131
:10079000704721FA02F3D040C2F120029140084391
:1007A00019467047202A06DBCB17203A41FA02F09F
:1007B00043EAE07306E041FA02F3D040C2F12002BE
:1007C00091400843194670470029A8BF7047401C54
:1007D000490008BF20F00100704710B4B0FA80FC57
:1007E00000FA0CF050EA010404BF10BC704749B194
:1007F000CCF1200421FA04F411FA0CF118BF012104
:1008000021430843A3EB0C01CB1D4FEA00614FEAE3
:10081000102042BF002010BC704700EBC3501044B2
:100820000029A4BF10BC7047401C490008BF20F03D
:10083000010010BC704710B5141E73F1000408DAF3
:10084000401C41F1000192185B411A4301D120F094
:10085000010010BD2DE9F04D92469B4611B1B1FA51
:1008600081F202E0B0FA80F220329046FFF77BFF7F
:1008700004460F4640EA0A0041EA0B0153465A4635
:10088000084313D0114653EA010019D0C8F14002C1
:100890005046FFF777FF05460E46504659464246FA
:1008A000FFF761FF084305D0012004E020463946E8
:1008B000BDE8F08D0020054346EAE0762C4337433F
:1008C0000A986305E40AA0EB08000022FD0A44EA46
:1008D00047540A3002D500200146E9E70105101906
:1008E0006941DDE9084500196941BDE8F04DA2E71D
:1008F000C1F30A52C1F3130140F2FF3341F48011F6
:100900009A4202DA00200146704740F233439A428D
:10091000A2F2334202DC5242FFF734BFFFF723BF9B
:10092000064C074D06E0E06840F0010394E807003C
:1009300098471034AC42F6D3FFF7DCFB2061000887
:100940004061000870B58C1810F8015B15F00703C2
:1009500001D110F8013B2A1106D110F8012B03E058
:1009600010F8016B01F8016B5B1EF9D12B0705D460
:100970000023521E0DD401F8013BFAE710F8013BA9
:10098000CB1A921C03E013F8015B01F8015B521EC5
:10099000F9D5A142D8D3002070BD21B1826842F0C0
:1009A0000102826003E0826822F0010282607047E7
:1009B00010B504461248844208D10121401500F0C8
:1009C00079FD0021601500F075FD17E00D488442A7
:1009D00008D10121001500F06DFD0021201500F067
:1009E00069FD0BE00848844208D10121C80300F0EA
:1009F00061FD00214FF4004000F05CFD10BD0000DF
:100A00000024014000280140003C01400146002034
:100A10008A6802F004020AB1012000E00020704759
:100A20000146C86C80B270470246002013680B4034
:100A30000BB1012000E000207047014600208A68C9
:100A400002F008020AB1012000E000207047000017
:100A500030B502460020002350680F4C20400D792D
:100A60000C6844EA05242043506090680B4C2040F9
:100A7000D1E902542C434D7944EA45042043906067
:100A8000D06A20F470000C7C641EE4B2234340EA78
:100A90000350D06230BD0000FFFEF0FFFDF7F1FF14
:100AA000F0B504460D4600200021092D11DDE06857
:100AB000A5F10A0606EB4607072606FA07F1884362
:100AC000A5F10A0606EB460603FA06F10843E060C4
:100AD0000CE0206905EB4507072606FA07F1884375
:100AE00005EB450603FA06F108432061072A0FDAF1
:100AF000606B561E06EB86071F2606FA07F1884331
:100B0000561E06EB860605FA06F10843606322E0EE
:100B10000D2A0FDA206BD61F06EB86071F2606FA72
:100B200007F18843D61F06EB860605FA06F108434F
:100B3000206310E0E06AA2F10D0606EB86071F268F
:100B400006FA07F18843A2F10D0606EB860605FAC0
:100B500006F10843E062F0BD816841F00801816060
:100B6000704721B1826842F4A002826003E082688B
:100B700022F4A00282607047816841F00401816024
:100B8000704710B50121082000F084FC10BD10B59D
:100B9000FFF7F7FF00F098FB00F07FFB702000F0FC
:100BA0001CF900F001FDA82000F017F900F0FCFC92
:100BB000002000F012F900F0F7FC002000F00DF921
:100BC00000F0F2FC00F01AFE0A2000F04FF900F0ED
:100BD00064FB702000F001F900F0E6FCBE2000F09C
:100BE000FCF800F0E1FC082000F0F7F800F0DCFC75
:100BF000002000F0F2F800F0D7FC00F0FFFD0A2022
:100C000000F034F910BD000070B5002400F0FAFCCB
:100C100000F000FD082000F072FD002513E000F058
:100C2000E9FC00F03DF9002601210B4800F028FA0C
:100C300000B1012646EA4400C4B200F0E3FC00F033
:100C40002FF9681CC5B2082DE9DB00F0E3FC082091
:100C500000F055FD204670BD000C014070B58AB013
:100C60000546002009900890079006900590049092
:100C70000390002400260190029000F089F8502093
:100C800000F0F4F800BF09E040F2E45000F037FD56
:100C90003046711C8EB2642800DB05E000F067F876
:100CA00000F080008028EFD000BF00F0F6FA71203D
:100CB00000F093F800F078FCFFF7A6FF09908DF89C
:100CC000040000F0E6FCFFF79FFF08908DF8050098
:100CD00000F0DFFCFFF798FF07908DF8060000F0AA
:100CE000D8FCFFF791FF06908DF8070000F0D1FCCB
:100CF000FFF78AFF05908DF8080000F0CAFCFFF7A7
:100D000083FF04908DF8090000F0C3FCFFF77CFF1F
:100D1000039000F0D9FC00F071FD062101A800F05D
:100D200087F89DF80C1088421CD19DF820002043C4
:100D300004029DF81C00204304029DF8180004439F
:100D400024092C6000249DF81800204304029DF81B
:100D50001400204304029DF810000443C4F313045C
:100D60006C6002E00020286068600AB070BD10B5B9
:100D700000F093FA712000F030F800F015FCFFF756
:100D800043FF044600F0A0FC00F038FD204610BDF3
:100D900010B500F082FA702000F01FF800F004FC9B
:100DA000AC2000F01AF800F0FFFB332000F015F83B
:100DB00000F0FAFB002000F010F800F0F5FB00F066
:100DC0001DFD10BD10B51B2000F0A4FA1C2000F082
:100DD000A1FA1E2000F09EFA10BD2DE9F041044654
:100DE00025468027002613E000F00CFC00F04AF8AE
:100DF00007EA050010B100F01FFC01E000F032FC32
:100E000000F0F8FB00F03EF86806050E701CC6B254
:100E1000082EE9DB00F0F6FB082000F070FC00F083
:100E2000F9FB082000F06BFCBDE8F08100BFFEE795
:100E300030B502460B46FF20002113E0555C6840A8
:100E400008240BE000F0800525B1312585EA400536
:100E5000E8B201E04506280E651EECB2002CF1DC7C
:100E60004D1CE9B29942E9DB30BD704710B504462C
:100E700003E04FF47A7000F042FC2000A4F101047A
:100E8000F7D110BD00B5012000F01BF8012000F0E3
:100E900018F8012000F015F8012000F012F800BD4C
:100EA00000B5012000F00DF8012000F00AF8012043
:100EB00000F007F8012000F004F8012000F001F82C
:100EC00000BD014604E0002000E0401C0228FCD3E5
:100ED0000A00A1F10101F6D170472DE9F041024667
:100EE00000250026002000230024002791F803C0DD
:100EF0000CF00F0591F803C00CF0100CBCF1000FC2
:100F000003D091F802C04CEA050591F800C0BCF18D
:100F1000000F31D0146800202BE04FF0010C0CFAC8
:100F200000F3B1F800C00CEA03069E4220D1830012
:100F30004FF00F0C0CFA03F7BC4305FA03FC4CEA24
:100F4000040491F803C0BCF1280F06D14FF0010C46
:100F50000CFA00FCC2F814C00AE091F803C0BCF11E
:100F6000480F05D14FF0010C0CFA00FCC2F810C07C
:100F7000401C0828D1D31460B1F800C0BCF1FF0FA9
:100F800034DD546800202EE000F1080C4FF0010819
:100F900008FA0CF3B1F800C00CEA03069E4221D116
:100FA00083004FF00F0C0CFA03F7BC4305FA03FC67
:100FB0004CEA040491F803C0BCF1280F05D100F1FC
:100FC000080C08FA0CF8C2F8148091F803C0BCF1C0
:100FD000480F07D100F1080C4FF0010808FA0CF88F
:100FE000C2F81080401C0828CED35460BDE8F081C0
:100FF000F0B50A46002300240021002500F0004639
:10100000B6F1004F02D11D4EF16901E01B4E71682F
:10101000C0F3034583B200F44016B6F5401F08D173
:1010200021F07061154E766826F07066134F7E6071
:1010300012E000F48016B6F5801F06D1032606FAEA
:1010400005F4A14341F0706106E0460D360103FA54
:1010500006F6B14341F0706122B1460D360103FA44
:1010600006F6314300F00046B6F1004F02D1034EC0
:10107000F16101E0014E7160F0BD0000000001402F
:101080000246002093680B400BB1012000E00020D5
:10109000704702460020D3680B400BB1012000E0EE
:1010A00000207047416170470161704700BFFEE753
:1010B00070B502460024002500230020958A138B7A
:1010C0001B0445EA030626F07F4404EA01068E422B
:1010D00001D1012000E0002070BD21B1028842F062
:1010E0000102028004E002884FF6FE731A4002807B
:1010F0007047000010B504460B48844209D1012115
:10110000480500F0B7F900214FF4001000F0B2F9E3
:1011100008E00121880500F0ADF900214FF48000BE
:1011200000F0A8F910BD00000054004021B1028871
:1011300042F48072028004E002884FF6FF631A4096
:101140000280704721B1028842F40072028004E0FC
:1011500002884FF6FF531A40028070470CB50246D2
:10116000002000230193009300920B0F019321F0C4
:101170007F41019B1BB1009B1433009303E0090CDA
:10118000009B18330093009B1B680B400BB10120A0
:1011900000E000200CBD00002DE9F04385B00446BE
:1011A0000D460026B1460427DFF8CC80A6884FF60E
:1011B000C0700640684600F08DF9DDF808802F48C1
:1011C000B8FBF0F01FFA80F946EA0906A6802088ED
:1011D0004FF6FE7108402080002629492868884281
:1011E0000CD828684000B8FBF0F087B2042F00DA72
:1011F00004273E4309F10100208427E0E8884BF6EC
:10120000FF71884206D1286800EB4000B8FBF0F07F
:1012100087B209E0286800EBC00101EB0010B8FBC1
:10122000F0F087B247F48047C7F30B0008B947F0E6
:10123000010747F4004006434FF4967009FB00F0A5
:101240004FF47A7190FBF1F0401C2084A683208833
:1012500040F00100208026884FF6F5300640A8882F
:101260006989084306432680A88929890843208183
:1012700005B0BDE8F083000000127A0040420F0084
:10128000A086010012B141F0010102E04FF6FE73A9
:101290001940018270470182704710B500F0CCF907
:1012A000082000F02CFA00F0A5F9082000F027FA39
:1012B00000F0D8F9082000F022FA00F0A3F9082085
:1012C00000F01DFA10BD000008B510208DF80300D5
:1012D0000120ADF8000003208DF8020069460C489B
:1012E000FFF7FBFD01210A48FFF7DEFE10208DF815
:1012F00003000220ADF8000003208DF802006946CB
:101300000348FFF7EAFD01210148FFF7CDFE08BDC4
:10131000000C01402DE9F0410446FFF7BEFF7020AC
:10132000FFF75BFD00F040F92046FFF756FD00F0A7
:101330003BF90020FFF751FD00F036F90020FFF7E0
:101340004CFD00F031F900F059FA0520FFF78EFD51
:10135000FFF7A3FF7120FFF740FD00F025F9FFF72D
:1013600053FC074600F095F9FFF74EFC054600F0E8
:1013700090F9FFF749FC064600F0A6F900F03EFAA6
:101380000A20FFF773FDFFF788FF7020FFF725FDA8
:1013900000F00AF944F0B000FFF71FFD00F004F977
:1013A0002846FFF71AFD00F0FFF83046FFF715FD5D
:1013B00000F0FAF800F022FA00250026BDE8F081DE
:1013C00000BFFEE77047000070B5002100230F2228
:1013D000C47804B3154C246804F4E064C4F5E064F4
:1013E000210AC1F10403CA40447804FA03F1847865
:1013F0001440214309010E4C0678A155047804F0ED
:101400001F050124AC4005786D11AD0005F1E02504
:10141000C5F8004109E0047804F01F050124AC4040
:10142000044D0678761145F8264070BD0CED00E0BD
:1014300000E400E080E100E0704700000146002089
:10144000034A506820F44040084350607047000051
:101450000010024029B1064AD2690243044BDA6106
:1014600004E0034AD2698243014BDA61704700000D
:101470000010024029B1064A12690243044B1A6166
:1014800004E0034A12698243014B1A61704700006D
:101490000010024029B1064A92690243044B9A6146
:1014A00004E0034A92698243014B9A61704700004D
:1014B0000010024029B1064AD2680243044BDA60A8
:1014C00004E0034AD2688243014BDA6070470000AF
:1014D0000010024030B500210022002400232D4DD1
:1014E0006D6805F00C0121B1042905D0082923D12C
:1014F00005E0294D056022E0274D05601FE0254DE0
:101500006D6805F47012234D6D6805F48034022572
:1015100005EB92421CB9214D554305600BE01D4D72
:101520006D6805F400351DB11C4D5543056002E0A2
:10153000194D5543056002E0174D056000BF00BF1F
:10154000144D6D6805F0F0010909154D6B5C0568D7
:10155000DD4045600F4D6D6805F4E061090A104DEE
:101560006B5C4568DD4085600A4D6D6805F460512F
:10157000C90A0B4D6B5C4568DD40C560054D6D6863
:1015800005F44041890B074D6B5CC568B5FBF3F56D
:10159000056130BD0010024000127A0000093D00D4
:1015A0001E0000202E00002010B5002400F02AF8B4
:1015B00000F030F8082000F0A2F800F01BF8082036
:1015C00000F09DF801E0601C84B201210848FFF79B
:1015D00057FD08B1642CF6DB642C01D1002010BD4E
:1015E00000F010F8082000F08AF80120F7E700006A
:1015F000000C014010B502210148FFF755FD10BD58
:10160000000C014010B502210148FFF74BFD10BD51
:10161000000C014008B504208DF803000120ADF84E
:10162000000003208DF8020069460248FFF755FCD0
:1016300008BD0000000C014008B510208DF8030023
:101640000120ADF8000003208DF80200694604482F
:10165000FFF743FC01210248FFF726FD08BD00000B
:10166000000C014008B510208DF803000120ADF8F2
:10167000000003208DF8020069460448FFF72DFCA6
:1016800001210248FFF70EFD08BD0000000C0140DB
:10169000704710B5FFF7B6FF082000F030F8FFF7ED
:1016A000E1FF082000F02BF8FFF7A4FF082000F06E
:1016B00026F8FFF7A7FF082000F021F8FFF7AAFFA0
:1016C000082000F01CF810BD10B5FFF79BFF0820A4
:1016D00000F015F8FFF7B0FF082000F010F8FFF752
:1016E00089FF082000F00BF8FFF78CFF082000F0BE
:1016F00006F8FFF7B7FF082000F001F810BD10B59D
:101700000446A41E03E00120FFF7DBFB641E002C4F
:10171000F9D110BD10B500F001F810BD0CB50020D6
:10172000019000903348006840F4803031490860EF
:1017300000BF3048006800F4003000900198401C61
:101740000190009818B90198B0F5A06FF1D129481F
:10175000006800F4003010B10120009001E000208A
:1017600000900098012843D12348006840F0100001
:10177000214908600846006820F003000860084618
:10178000006840F0020008601A4840681949486043
:101790000846406848600846406840F480604860F9
:1017A0000846406820F47C1048600846406840F4D1
:1017B000E81048600846006840F08070086000BF8C
:1017C0000C48006800F000700028F9D00948406813
:1017D00020F00300074948600846406840F00200D6
:1017E000486000BF0348406800F00C000828F9D1A9
:1017F0000CBD0000001002400020024010B5FFF7B1
:1018000031FF0820FFF77BFFFFF7F4FE0820FFF70A
:1018100076FFFFF711FF0820FFF771FF10BD0428C6
:1018200008D14FF0E021096941F004014FF0E022B6
:10183000116107E04FF0E021096921F004014FF048
:10184000E02211617047704710B51348006840F0FE
:1018500001001149086008464068104908400E49D7
:101860004860084600680E4908400B490860084671
:10187000006820F4802008600846406820F4FE00DC
:1018800048604FF41F008860FFF744FF4FF000608E
:101890000449086010BD0000001002400000FFF87D
:1018A000FFFFF6FE08ED00E010B50121880700F00B
:1018B00056F800283DD01F480088401C1D4908806C
:1018C00000F0A2FF20B11C480088401C1A49088083
:1018D00000F094FF20B919480088401C174908807F
:1018E00000F076FF14490988B1EB400F04DB0020BB
:1018F0001149088003F052FB0E49088800EBD071B3
:101900004910A0EB410121B900200A49088000F0EC
:1019100037FF00F0BDFF09490988884205DC002037
:1019200006490880012003F07DFC0121880700F0B2
:1019300007F810BDF4030020F8030020F603002090
:10194000CA430282704721B1028842F0010202803C
:1019500004E002884FF6FE731A400280704730B5EB
:101960000246002000230024158A05EA0103958918
:1019700005EA010413B10CB1012000E0002030BDE4
:101980001AB183890B43838102E083898B4383816E
:1019900070470000002202881D4B98420ED01D4B5C
:1019A00098420BD0B0F1804F08D01B4B984205D025
:1019B0001A4B984202D01A4B984204D14FF68F73BB
:1019C0001A404B881A43174B984207D0164B98423F
:1019D00004D04FF6FF431A40CB881A4302808B880D
:1019E00083850B8803850A4B98420BD0094B98429C
:1019F00008D00E4B984205D00D4B984202D00D4BAB
:101A0000984201D10B7A038601238382704700003C
:101A1000002C014000340140000400400008004058
:101A2000000C004000100040001400400040014045
:101A3000004401400048014010B540F225511D48C6
:101A400000F03EF810B31B4800F064F8C4B21A4826
:101A5000008800F40040C8B91748008800F48040AE
:101A600060B10A2C03D000201349088020E01248FE
:101A7000008840F400401049088019E00D2C06D180
:101A80000D48008840F480400B49088010E00A4867
:101A90000088C0F30D0009490C5407480088401C19
:101AA0000549088008460088C72801DD0020088015
:101AB00010BD0000003801401C0000200804002078
:101AC00070B50246002400230025002040F66A1667
:101AD000B14200D100BFC1F3421501F01F0301263E
:101AE00006FA03F3012D02D19689334006E0022D58
:101AF00002D1168A334001E0968A33400C12012647
:101B000006FA04F41688344013B10CB1012000E049
:101B1000002070BD01468888C0F30800704700BFF0
:101B2000FEE7000000B585B001210820FFF7B2FCF8
:101B300001210846FFF7AEFC01214805FFF78AFCAA
:101B400001210220FFF754FA1C208DF803004FF406
:101B50004070ADF8000003208DF80200694611487E
:101B6000FFF7BBF91048FFF7C5FA4FF48060ADF8F6
:101B70000E000001ADF810000C4801904BF6FF700C
:101B8000ADF80A000020ADF808001020ADF80C00F8
:101B900001A90548FFF700FB01210348FFF79DFA63
:101BA00005B000BD000C014000540040801A060042
:101BB00070B504460D4600BF4FF400311C48FFF7D6
:101BC000CDFA0028F8D101211948FFF7AFFA00BF7C
:101BD00018491748FFF76CFA0028F9D0002278213D
:101BE0001348FFF74FFB00BF13491148FFF760FA96
:101BF0000028F9D021460E48FFF74DFB00BF0E49E3
:101C0000891E0B48FFF754FA0028F8D029460848E7
:101C1000FFF741FB00BF0849891E0548FFF748FA56
:101C20000028F8D001210248FFF78CFA70BD0000AF
:101C30000054004001000300820007000FB4084B6D
:101C400010B504A902AA039800F0CEF8044602A930
:101C5000002000F068FC204610BC5DF814FB00007A
:101C60002725000802E008C8121F08C1002AFAD17F
:101C700070477047002001E001C1121F002AFBD10C
:101C8000704700002DE9FF5FDDE90220010DDDF85E
:101C900038B0024318D044F61050A1F2FF3141434E
:101CA0000D140F98012820D0A5EB0B00401C5FEA13
:101CB000000A4FF00004474EDFF81C91A046504642
:101CC00016D5CAF1000728E00F98012443A2012885
:101CD00008D0002100980F9BC0E90021C0E9024311
:101CE000BDE8FF9F6FEA0B01F4E7CBF10000DEE7F0
:101CF000074612E0F80707D02246334640464946D9
:101D0000FEF716FB804689462246334610461946A2
:101D1000FEF70EFB04460E467F10002FEAD1DDE9E8
:101D20000201BAF1000F42464B4602DAFEF700FB11
:101D300001E0FEF76FFB04460E460022284BFEF73B
:101D400083FC03D84FF0FF30014607E00022254B0B
:101D500020463146FEF745FAFEF7CAFD102409E099
:101D6000002C0ADB0A220023FEF7CCFC019B303258
:101D70001A55641E50EA0102F2D1641C019AC4F1A2
:101D8000110314440F9A012A03D0012208430DD1F4
:101D90000AE0084304D000204FF0110B0F9080E7B9
:101DA000A3EB0B056D1E0DE05B4504DD4FF000025B
:101DB00005F1010504E003DA4FF00002A5F1010589
:101DC000002AECD000980F99C0E90231C0E9004523
:101DD00086E70000000024400000F03F30000000D3
:101DE0000000F0430000E03F2DE9FF4F95B09B4617
:101DF0008946064600250FE2252877D1002427468C
:101E0000F84A0121059400E0044316F8013F203B05
:101E100001FA03F01042F7D130782A2811D06FF080
:101E20002F033078A0F13002092A16D8059A44F021
:101E3000020402EB820203EB42021044761C05907E
:101E4000EFE759F8042B0592002A03DA504244F4D4
:101E50000054059044F00204761C30782E2816D1E8
:101E600016F8010F44F004042A280DD06FF02F0259
:101E70003078A0F13003092B09D807EB870302EB78
:101E80004303C718761CF3E759F8047B761C3078B7
:101E90006C280FD006DC4C2817D068280DD06A2893
:101EA00014D104E0742810D07A280FD10DE044F446
:101EB00000140AE044F4801401E044F44014727801
:101EC000824202D104F58014761C761C3078662894
:101ED0000BD013DC582877D009DC002875D04528B2
:101EE000F6D04628F4D047281AD19DE118E063289F
:101EF00035D0642879D0652812D195E1702873D047
:101F000008DC6728F1D069286FD06E280DD06F28C3
:101F100006D1B5E073282CD0752875D0782874D0F8
:101F20005A46179990476D1C75E1C4F30250022878
:101F300009D003280DD0D9F8001004280DD00D6069
:101F400009F1040967E1D9F80010EA17C1E9005264
:101F5000F6E7D9F800100D80F2E70D70F0E719F8F8
:101F6000041B8DF8001000208DF80100EA460120C6
:101F700003E059F804AB4FF0FF3061074FF0000168
:101F800002D40DE008F101018846B9420FDA80451C
:101F9000F8DB1AF808100029F4D108E008F1010173
:101FA00088468142FADB1AF808100029F6D1059814
:101FB0005B46A0EB080721463846179A00F094FAD2
:101FC000284400EB080507E04DE029E10DE01AF890
:101FD000010B5A4617999047B8F10108F7D25B46B2
:101FE00021463846179A13E142E00A220092C4F3D0
:101FF00002524FF0000A022A08D059F804CB032AF3
:102000004FEAEC710AD00DE029E02AE009F107015E
:1020100021F00702F2E802C1914609E00FFA8CFCB8
:102020004FEAEC71042A03D14FFA8CFC4FEAEC71B1
:10203000002907DA0A460021DCF1000C61EB0201FD
:102040002D2202E0220504D52B228DF80420012246
:1020500003E0E20701D02022F7E7904659E00A2189
:1020600002E010220DE010214FF0000A00910BE079
:1020700010224FF0000A44F004040827009203E005
:1020800008224FF0000A0092C4F30252022A05D03F
:1020900059F804CB0021032A08D009E009F107010F
:1020A00021F00702F2E802C1914605E01FFA8CFC1C
:1020B000042A01D10CF0FF0C4FF00008220728D5AC
:1020C000702806D0009B83F0100353EA0A0305D062
:1020D0000EE040228DF80420012208E05CEA0102B3
:1020E00006D030228DF804208DF80500022290469B
:1020F000009B83F0080353EA0A030AD15CEA010259
:1021000001D1620705D530228DF804204FF0010877
:102110007F1E582804D034A003900EA802900DE032
:1021200036A0F9E753466046009AFEF7EBFA84467C
:102130000398825C0298401E029002705CEA0100E3
:10214000F0D1029806A9081A00F1200A600702D50A
:1021500024F4803400E00127574502DDA7EB0A0094
:1021600000E0002000EB0A01009005984144401A6D
:102170000590E00306D45B462146179A059800F0C7
:10218000B3F90544002706E001A85A46C05D179937
:1021900090476D1C7F1C4745F6DBE0030CD55B4682
:1021A0002146179A059800F09FF9054404E0302075
:1021B0005A46179990476D1C0099481E00900029B7
:1021C000F5DC08E0029802995A460078491C029111
:1021D000179990476D1CBAF10001AAF1010AF1DCD0
:1021E00065E10000092801003031323334353637DB
:1021F0003839616263646566000000003031323353
:1022000034353637383941424344454600000000F2
:1022100000F058F90544761C307800287FF4ECADC6
:1022200019B02846BDE8F08F620700D4062709F1EF
:10223000070222F0070CFCE80223E14603F0004805
:102240005FEA080C02D00FF2702C0DE05FEA045C2C
:1022500002D50FF2682C07E05FEAC47C02D00FF2CF
:10226000602C01E0AFF2700C4FF0FF3823F0004318
:10227000CDF850C065280CD006DC452809D046288A
:102280001DD047283DD13DE0662818D067287ED173
:1022900038E00021112F01DB112000E0781CCDE98E
:1022A000000106A90EA8FFF7EDFCDDE90F010E9A6B
:1022B00003910021009207F1010A04914DE04FF0D3
:1022C00000400097CDE9011006A90EA8FFF7DAFC3F
:1022D000DDE90F0203920E9B11990022DDF80CA09C
:1022E0000093049211B9791C00EB010AB7EB0A00C4
:1022F00004D4C0F1FF3007F1010A0490AAEB0700F3
:10230000019044E0012F00DA01270021112F01DDA7
:10231000112000E03846CDE9000106A90EA8FFF71C
:10232000B1FCDDE90F010E9A0391002104910092A6
:10233000BA4621070CD40399514500DA8A46BAF10E
:10234000010F05DD009AAAF10101515C302908D086
:10235000B84202DA10F1040F06DA0121CDE90110CA
:1023600015E0AAF10101E9E7002805DC0499014420
:102370000491AAEB000102E0411C514500DD8A46B0
:102380000499401A401C01904FF000400290200731
:1023900004D40198504501DBCDF8048000208DF86D
:1023A0004F0002980DF14F07B0F1004F25D02B20C0
:1023B0000E9002984FF0020800280CDA404202907A
:1023C0002D200E9007E00A210298FEF785F93031A2
:1023D000029007F8011DB8F10001A8F10108F2DC34
:1023E00002980028EFD1791E0E980870307800F01E
:1023F000200040F0450007F8020D12A8C01B00F1B4
:1024000007081498007800B1012000EB0A01019838
:1024100001EBE07105984144401A401E0590E0032D
:1024200006D45B462146179A059800F05DF80544EE
:102430001498007818B15A46179990476D1CE0031C
:1024400024D55B462146179A059800F04DF80544BF
:102450001CE00498002807DBDDE90301884203DD66
:102460000098405C179901E0179930205A46904730
:10247000049805F10105401C04900198401E01904C
:1024800004D12E205A46179990476D1CBAF10001CD
:10249000AAF1010ADDDC05E017F8010B5A4617998D
:1024A00090476D1CB8F10001A8F10108F4DC5B460F
:1024B0002146179A0598ABE62D0000002B0000007E
:1024C000200000002DE9F041044600251E46174675
:1024D000880404D405E039462020B0476D1C641EF2
:1024E000F9D52846BDE8F0812DE9F04104460025E4
:1024F0001E469046C80301D5302700E020278804F7
:1025000004D505E041463846B0476D1C641EF9D538
:102510002846BDE8F08110B502F0E8FE02F062FD49
:1025200000F0EAF910BD0A68531C0B601070704788
:102530002DE9F041074617B90020BDE8F0811020D1
:1025400001F0F0FD0446002020706060A060E060B3
:1025500025464FF001080EE0102001F0E3FD06468D
:10256000002131707160B160F160A660A46808F16B
:10257000010000F0FF08B845EEDB2846DDE700006B
:1025800010B5174817490860174848601748184998
:102590000860184848600021084602F09FFD0121AC
:1025A000002002F09BFD0021134802F0BFFD012135
:1025B000124802F0BBFD12481249086012484860F8
:1025C000124888603C2002F017FE3C2002F0FEFD1D
:1025D0003C2000F07BFB042002F0DCFD10BD00007D
:1025E000D00C0020B8030020DC0C0020E80C0020F8
:1025F000C0030020F40C00200000D041000048423D
:10260000C8030020000D0020D0030020D8030020C4
:1026100010B56FF00400FFF702F90A4800680A4994
:10262000B0FBF1F0094908700846007800EB400162
:10263000C1EBC0104FF6FF7101EAC00004490880E9
:1026400010BD00000000002000127A0014000020DD
:10265000160000200146114A12884A434FF0E02339
:102660005A6100229A611A46126942F001021A6107
:1026700000BF4FF0E022106900F001021AB100F42F
:102680008032002AF5D04FF0E022126922F00102D8
:102690004FF0E0231A6100229A6170471600002073
:1026A0000146114A12784A434FF0E0235A61002252
:1026B0009A611A46126942F001021A6100BF4FF096
:1026C000E022106900F001021AB100F48032002A01
:1026D000F5D04FF0E022126922F001024FF0E02322
:1026E0001A6100229A6170471400002002460020FF
:1026F0000BE0002105E0064B03EBC0135A544B1CC2
:10270000D9B28029F7DB431CD8B20828F1DB704727
:10271000D008002030B503460C4610490BB90846D6
:1027200030BD002505E0896809B90020F8E7681C7C
:10273000C5B29D42F7DB0CB90846F1E7002208E07C
:102740000AB9C96800E0896809B90020E8E7501CA7
:10275000C2B2A242F4DB0846E2E700000C0D002002
:1027600010B5712005490870002088600420FFF72B
:10277000DFFE024988600020C86010BD0C0D0020FB
:1027800010B500210846FFF7C5FF04461CB12078AC
:1027900040F08000207010BD0146024850F8210032
:1027A00000687047C00300200146024850F821002D
:1027B00000687047B80300200148007870470000A7
:1027C000D80300200148007870470000D0030020A3
:1027D0000148007870470000C803002010B5054884
:1027E000007808B9002010BD40210348FEF748FCDE
:1027F000F9E70000FD030020000C014001480078CB
:1028000070470000FC03002001480078704700007A
:10281000E003002070B500210120FFF77BFF044694
:10282000012020700220FFF783FEE060E068A0B185
:1028300001210846FFF76EFF064600203070FFF7C3
:10284000B3FF706002210120FFF764FF05460020FE
:1028500028700120FFF7A8FF686070BD08B501214E
:102860000820FEF717FE4020ADF8000028208DF864
:10287000030069460348FEF730FB01200249087057
:1028800008BD0000000C0140FD030020A32070479C
:102890000148008870470000FA03002008B50121B4
:1028A0000420FEF7F7FD0120ADF8000003208DF8AD
:1028B000020010208DF8030069460548FEF70DFB65
:1028C00001210348FEF7EEFB78200249088008BD8D
:1028D00000080140FA03002010B501210148FEF76D
:1028E000E3FB10BD0008014010B501210148FEF7CF
:1028F000D9FB10BD000801402DE9F04F87B04FF023
:102900000009002600240020049005900690FFF79F
:1029100075FF10B907B0BDE8F08F002002F082FC0F
:1029200002F07BFD012002F02FFC012002F082FA70
:102930000020FFF739FF0390FDF75BFE8246E04A77
:10294000E04BFDF74EFC0746FDF796FE81464846F4
:10295000FDF703FEC0B28DF810004846FDF7E4FD18
:102960000190FDF7C6FD83464946FDF737FC8246D8
:10297000FDF73FFE07460022D34BFDF7D9FCCDE91A
:102980000201FDF71DFEC0B28DF811000120FFF716
:102990000BFF0390FDF72DFE8246C94AC94BFDF798
:1029A00020FC0746FDF768FE81464846FDF7D5FD49
:1029B000C0B28DF812004846FDF7B6FD0190FDF754
:1029C00098FD83464946FDF709FC8246FDF711FE56
:1029D0000022BD4BCDE90201FDF7AAFC0746FDF739
:1029E000EFFDC1B28DF813100020FFF7D5FE039064
:1029F000FDF7FFFD8246B24AB24BFDF7F2FB0746F8
:102A0000FDF73AFE81464846FDF7A7FDC0B28DF8B6
:102A100014004846FDF788FD0190FDF76AFD8346E6
:102A20004946FDF7DBFB8246FDF7E3FD0746002242
:102A3000A54BFDF77DFCCDE90201FDF7C1FDC1B25B
:102A40008DF815100120FFF7A7FE0390FDF7D1FDCB
:102A500007469B4A9B4BFDF7C4FB8246FDF70CFEE5
:102A600081464846FDF779FDC0B28DF8160048460C
:102A7000FDF75AFD0190FDF73CFD49460290FDF738
:102A8000ADFB0390FDF7B5FD074600228E4BFDF729
:102A90004FFC8246FDF794FDC1B28DF81710FFF789
:102AA0009DFE28B1FF208DF81800FF218DF8191028
:102AB0000026F7E0FFF710FF4FF46170FFF7F0FD1D
:102AC000FFF712FF4FF4E170FFF7EAFDFFF7DEFEBC
:102AD0000546002416E0FFF7FFFE4FF40C70FFF7E9
:102AE000DFFDFFF701FF80202041284020B14FF497
:102AF000D260FFF7D5FD03E04FF40C70FFF7D0FD77
:102B0000601CC4B2082CE6DBE843C5B2002416E022
:102B1000FFF7E2FE4FF40C70FFF7C2FDFFF7E4FE93
:102B200080202041284020B14FF4D260FFF7B8FD4B
:102B300003E04FF40C70FFF7B3FD601CC4B2082C27
:102B4000E6DB802040FA06F5002416E0FFF7C4FE1D
:102B50004FF40C70FFF7A4FDFFF7C6FE8020204164
:102B6000284020B14FF4D260FFF79AFD03E04FF404
:102B70000C70FFF795FD601CC4B2082CE6DB04A8BE
:102B800010F81650002416E0FFF7A6FE4FF40C7064
:102B9000FFF786FDFFF7A8FE80202041284020B1E6
:102BA0004FF4D260FFF77CFD03E04FF40C70FFF7A9
:102BB00077FD601CC4B2082CE6DB1825002416E063
:102BC000FFF78AFE4FF40C70FFF76AFDFFF78CFEEB
:102BD00080202041284020B14FF4D260FFF760FDF3
:102BE00003E04FF40C70FFF75BFD601CC4B2082CCF
:102BF000E6DB04A800EB46004578002416E0FFF76A
:102C00006BFE4FF40C70FFF74BFDFFF76DFE80205D
:102C10002041284020B14FF4D260FFF741FD03E08E
:102C20004FF40C70FFF73CFD601CC4B2082CE6DBCF
:102C3000AA25002416E0FFF74FFE4FF40C70FFF7B3
:102C40002FFDFFF751FE80202041284020B14FF496
:102C5000D260FFF725FD03E04FF40C70FFF720FD75
:102C6000601CC4B2082CE6DB5525002416E0FFF7F3
:102C700033FE4FF40C70FFF713FDFFF735FE802095
:102C80002041284020B14FF4D260FFF709FD03E056
:102C90004FF40C70FFF704FD601CC4B2082CE6DB97
:102CA000701CC6B2052EFFF605AF002002F06CFACC
:102CB000012002F0BFF802F0B7FB00BF2AE60000D7
:102CC0007B14AE47E17A843F00002440782803DD7E
:102CD000F021084A11800BE0142803DA2821054A64
:102CE000118005E04FF6FF7101EA4001014A1180B1
:102CF00070470000FA03002070B5FFF785FD98B912
:102D000000210846FFF706FD04466CB171202070D3
:102D100000210120FFF7FEFC06462EB10120307095
:102D2000C820FFF797FC70BD00210846FFF7F2FCB2
:102D300004468CB1207800F0800068B1207800F063
:102D40000F05FFF7E8FB691EC8B2012101F068FC1E
:102D5000207800F07F0020704FF4806000F094FE37
:102D6000002864D10A20FFF775FC4FF4806000F062
:102D70008BFE002851D102F0ABF900210846FFF785
:102D8000C9FC0446002C48D0207840F07000207028
:102D9000207800F00F05012D0BD100210120FFF755
:102DA000B9FC06464EB301203070C820FFF752FC34
:102DB000B9E7022D22D100210220FFF7ABFC064625
:102DC000DEB1012030700021084601F0FBFF012038
:102DD00001F099FC4FF4FA70FFF73CFC01E001F0C0
:102DE00028F8207800F070000028F8D10021012098
:102DF00001F016FC802001F086FC0EE0032D02D1CC
:102E0000FFF77AFD09E0042D07D1FFF7FDFC10B1B3
:102E100002F0C4F801E002F0CFF802E0C820FFF7AA
:102E200019FC4FF4806000F02FFE0028F6D04FF41C
:102E3000004000F029FEE8B90A20FFF70BFC4FF430
:102E4000004000F021FEA8B902F042F90021084636
:102E5000FFF760FC04466CB1712020700021012056
:102E6000FFF758FC06462EB101203070C820FFF74E
:102E7000F1FB58E74FF4805000F006FE80BB0A20BB
:102E8000FFF7E8FB4FF4805000F0FEFD08BB02F0B6
:102E90001FF900210846FFF73DFC0446D4B1207815
:102EA00000F00F05012D01DD681E00E00420C5B211
:102EB000691EC8B2082101F015FE691EC8B20121C1
:102EC00001F0AEFB207800F07000207020782843DD
:102ED000207008E001F0E6F818B101F0F7F802E020
:102EE0000BE001F0E9F802E0C820FFF7B3FB4FF474
:102EF000805000F0C9FD0028F6D04FF4804000F06B
:102F0000C3FD80BB0A20FFF7A5FB4FF4804000F013
:102F1000BBFD08BB02F0DCF800210846FFF7FAFB16
:102F20000446D4B1207800F00F05042D01DA681CA6
:102F300000E00120C5B2691EC8B2102101F0D2FD27
:102F4000691EC8B2012101F06BFB207800F070000F
:102F5000207020782843207008E001F0A3F818B111
:102F600001F0B4F802E00BE001F0A6F802E0C8209E
:102F7000FFF770FB4FF4804000F086FD0028F6D08C
:102F800000BFD0E608B501210820FEF783FA4FF410
:102F90007840ADF8000048208DF8030069460548E8
:102FA000FDF79BFFFFF7DCFBFFF734FC02F040F975
:102FB00008BD0000000C01402DE9F04F89B0FFF77B
:102FC00023FC88B900210120FFF7A4FB04465CB173
:102FD000207800F00F010120FFF79CFB054600213F
:102FE000297009B0BDE8F08F00210846FFF792FB79
:102FF000044674B3207800F0800050B3FFF78BFADA
:10300000207800F07F00207000210120FFF782FB74
:103010000446F4B1207800F00F010120FFF77AFB9D
:103020000546B5B1287800F0F00090B1207800F0A6
:103030000F00401E00F0FF0A287800F00F06002263
:103040000121504601F030FE00225146304601F089
:103050006BFA4FF4004000F017FD78BB0A20FFF731
:10306000F9FA4FF4004000F00FFDE8B902F030F833
:1030700000210120FFF74EFB04466CB1207800F0E0
:103080000F010120FFF746FB0546287800F0F0000D
:1030900050B10020287007E001F004F810B101F0F1
:1030A00015F801E001F008F802E0C820FFF7D2FAB5
:1030B0004FF4004000F0E8FC0028F6D04FF48050B8
:1030C00000F0E2FC00284FD10A20FFF7C3FA4FF4CA
:1030D000805000F0D9FC58BB01F0FAFF002101201C
:1030E000FFF718FB04466CB3207800F00F010120B5
:1030F000FFF710FB0546E5B1287800F0F000B8B105
:10310000207800F00F00401E00F0FF0A287800F041
:103110000F0600220121504601F0C6FD4FF0FF329C
:103120005146304601F000FAC6B246F0F000287071
:1031300010E000F0B7FF10B100F0C8FF0AE000F0A7
:10314000BBFF07E000F0AEFF10B100F0BFFF01E0F1
:1031500000F0B2FF02E0C820FFF77CFA4FF4805085
:1031600000F092FC0028F6D04FF4804000F08CFC78
:1031700000284ED10A20FFF76DFA4FF4804000F08E
:1031800083FC50BB01F0A4FF00210120FFF7C2FA2D
:10319000044664B3207800F00F010120FFF7BAFA6B
:1031A0000546DDB1287800F0F000B0B1207800F0DD
:1031B0000F00401E00F0FF0A287800F00F060022E2
:1031C0000121504601F070FD01225146304601F0C8
:1031D000ABF9C6B246F0F000287010E000F062FFD4
:1031E00010B100F073FF0AE000F066FF07E000F0A6
:1031F00059FF10B100F06AFF01E000F05DFF02E04E
:10320000C820FFF727FA4FF4804000F03DFC00286B
:10321000F6D04FF4006000F037FC00287CD10A2083
:10322000FFF718FA4FF4006000F02EFC002874D16C
:1032300001F04EFF00210120FFF76CFA0446002C3C
:103240006CD0207800F00F010120FFF763FA0546EB
:10325000002D7DD0287800F0F00000285DD0207887
:1032600000F00F00401E00F0FF0A287800F00F0663
:103270006F682078401EF74951F830802078401E52
:1032800001EBC000D0F8049036B1012E33D0022EED
:103290004CD0032E7ED180E0EF493846FDF712FA7C
:1032A00010D8ED493846FCF744FF83464146FDF708
:1032B00009FA01D2404603E0E7493846FCF739FFF6
:1032C000074617E04FF07E513846FCF732FF834641
:1032D0004146FDF7F7F901D2404604E04FF07E5138
:1032E0003846FCF726FF0746DB493846FDF7EAF982
:1032F00000D801267FE0D8493846FDF7E3F914D815
:103300004FF07E513846FCF714FF83464146FDF7E7
:10331000D9F904D2404607E097E08CE083E04FF013
:103320007E513846FCF705FF074664E0CA49384637
:10333000FDF7BEF928D24046FDF75BF9CDE904015F
:103340003846FDF756F9C54AC54BCDE9000100E006
:1033500060E0FCF746FFCDE90201DDE90423FDF75B
:1033600073F903D24046FDF744F908E03846FDF70B
:1033700040F9BA4ABA4BCDE90401FCF732FFCDE976
:103380000601FDF779F90746B3493846FDF79AF982
:1033900002D800E02EE003262DE0AF493846FDF7C5
:1033A00091F926D84046FDF724F9CDE904013846C5
:1033B000FDF71FF9A94AAA4BCDE90001FCF711FF5F
:1033C000CDE90201DDE90423FDF73EF903D24046D1
:1033D000FDF70FF908E03846FDF70BF99F4AA04BBF
:1033E000CDE90401FCF7FDFECDE90601FDF744F946
:1033F000074600BF00BF00BF46F0F00028706F60B6
:103400005146384601F092FE00225146304601F006
:103410008BF810E000F046FE10B100F057FE0AE015
:1034200000F04AFE07E000F03DFE10B100F04EFE55
:1034300001E000F041FE02E0C820FFF70BF94FF475
:10344000006000F021FB0028F6D04FF4005000F09F
:103450001BFB00287CD10A20FFF7FCF84FF400503A
:1034600000F012FB002874D101F032FE002101208F
:10347000FFF750F90446002C6CD0207800F00F01C3
:103480000120FFF747F90546002D71D0287800F09C
:10349000F00000285DD0207800F00F00401E00F002
:1034A000FF0A287800F00F066F682078401E6949EF
:1034B00051F830802078401E01EBC000D0F8049015
:1034C00036B1012E33D0022E53D0032E6FD17EE0C1
:1034D00061493846FDF7F6F816D85F493846FCF7DB
:1034E0007AFE83464946FDF7E3F801D2484603E0F9
:1034F00059493846FCF76FFE074657493846FDF7ED
:10350000D7F813D2002611E04FF07E513846FCF771
:1035100062FE83464946FDF7CBF801D2484604E0F7
:103520004FF07E513846FCF756FE074683E04A4985
:103530003846FDF7C7F81AD84FF07E513846FCF7E9
:103540004AFE83464946FDF7B3F804D2484607E0F1
:10355000A3E098E08FE04FF07E513846FCF73BFE49
:1035600007463D493846FDF7A3F800D2002662E041
:1035700078E039493846FDF79BF827D24846FDF7F1
:1035800038F8CDE904013846FDF733F8334A344BB7
:10359000CDE90001FCF7C6FECDE90201DDE9042317
:1035A000FDF73AF804D24846FDF723F809E041E078
:1035B0003846FDF71EF8294A294BCDE90401FCF7EE
:1035C000B1FECDE90601FDF757F8074633E0224981
:1035D0003846FDF777F82CD84846FDF70AF8CDE9CC
:1035E00004013846FDF705F81C4A1D4BCDE90001E2
:1035F000FCF798FECDE90201DDE90423FDF70CF8A4
:1036000003D24846FCF7F5FF08E03846FCF7F1FF27
:10361000124A134BCDE90401FCF784FECDE9060103
:10362000FDF72AF807460C493846FDF741F800D265
:10363000022600BF00BF00BF46F0F00028706F6098
:103640005146384601F072FD00225146304600F0E6
:103650006BFF18E0E4030020000020419A9999993B
:103660009999B93F00F01EFD10B100F02FFD0AE05E
:1036700000F022FD07E000F015FD10B100F026FD7E
:1036800001E000F019FD02E0C820FEF7E3FF4FF46F
:10369000005000F0F9F90028F6D000BFA1E470B5A1
:1036A00000210846FFF736F80446E4B1207800F020
:1036B0008000C0B1FEF72FFF207800F07F0020705F
:1036C00000210120FFF726F8054665B1287800F0B3
:1036D0000F06711EC8B20122114601F0E5FA2878E2
:1036E00000F07F002870FFF78FF898B9FFF776F8A1
:1036F00080B101F061FC00210120FFF70BF80446C6
:1037000044B1012020702178491EC8B2012211461F
:1037100001F0CAFA4FF4004000F0B6F900286AD16F
:103720000A20FEF797FF4FF4004000F0ADF90028A3
:1037300057D101F0CDFCFFF767F8D8B901F03CFC98
:1037400000210120FEF7E6FF04460120207034B17D
:103750002178491EC8B20122114601F0A5FA02E003
:10376000C820FEF777FF4FF4004000F08DF90028E5
:10377000F6D070BD00210846FEF7CCFF044644B3E6
:1037800000210120FEF7C6FF05460DB38120207001
:103790000021084600F044FF802000F0B4FFC8205C
:1037A000FEF758FF01E0FFF7A7FA207800F07F004E
:1037B0007128F8D1012028702978491EC8B200224A
:1037C000012101F071FA012000F09DFF71202070AD
:1037D00007E000F067FC10B100F078FC01E000F0B9
:1037E0006BFC02E0C820FEF735FF4FF4004000F00C
:1037F0004BF90028F6D04FF4806000F045F900281E
:103800006ED10A20FEF726FF4FF4806000F03CF9ED
:1038100000285BD101F05CFCFEF7F6FFD8B901F09F
:10382000CBFB00210120FEF775FF044644B10120C7
:1038300020702178491EC8B20122114601F034FAE5
:1038400002E0C820FEF706FF4FF4806000F01CF98C
:103850000028F6D08DE700210120FEF75BFF04462B
:1038600064B3207800F00F010120FEF753FF0546F6
:103870001DB3207800F00F00401EC6B2F020287063
:1038800000220121304601F00FFA297801F00F00E3
:103890000022314600F048FE4FF4FA70FEF7DAFEDF
:1038A00001E0FFF789FB287800F0F0000028F8D14C
:1038B00001221146304601F0F7F907E000F0F2FB73
:1038C00010B100F003FC01E000F0F6FB02E0C820BC
:1038D000FEF7C0FE4FF4806000F0D6F80028F6D066
:1038E0004FF4805000F0D0F8002862D10A20FEF793
:1038F000B1FE4FF4805000F0C7F800284FD101F01E
:10390000E7FBFEF781FFD8B901F056FB002101204B
:10391000FEF700FF044644B1012020702178491EC3
:10392000C8B20122114601F0BFF902E0C820FEF73B
:1039300091FE4FF4805000F0A7F80028F6D018E769
:1039400000210120FEF7E6FE044604B3207800F0D3
:103950000F010120FEF7DEFE054605B3287800F0D2
:10396000F000E0B9207800F00F00401EC6B20EB99A
:10397000012000E00020064600220121304601F02F
:1039800093F9102000F0BFFE701C207007E000F0DB
:1039900089FB10B100F09AFB01E000F08DFB02E022
:1039A000C820FEF757FE4FF4805000F06DF8002855
:1039B000F6D04FF4804000F067F8002862D10A206A
:1039C000FEF748FE4FF4804000F05EF8D0BB01F0F7
:1039D0007FFBFEF719FFD8B901F0EEFA00210120B4
:1039E000FEF798FE044644B1012020702178491E5C
:1039F000C8B20122114601F057F902E0C820FEF7D3
:103A000029FE4FF4804000F03FF80028F6D0B0E6E1
:103A100000210120FEF77EFE04460CB3207800F062
:103A20000F010120FEF776FE05465DB1287800F013
:103A3000F00038B9207800F00F00401EC6B216B969
:103A4000012001E014E0002006460022012130465A
:103A500001F02AF9082000F056FE701C207007E0E3
:103A600000F020FB10B100F031FB01E000F024FB7E
:103A700002E0C820FEF7EEFD4FF4804000F004F8AD
:103A80000028F6D000BF74E610B50446214602486F
:103A9000FDF7F6FA10BD0000000C01402DE9F041E1
:103AA000FEF7B2FEB8B900210220FEF733FE05464C
:103AB0008DB1287800F00F010220FEF72BFE04469E
:103AC0004CB1207800F00F002070287800F00F0033
:103AD0002870BDE8F08100210846FEF71BFE054670
:103AE0001DB3287800F08000F8B1FEF714FD2878A7
:103AF00000F07F00287000210220FEF70BFE054633
:103B00009DB1287800F00F010220FEF703FE044665
:103B10005CB1287800F00F00401EC7B2207800F09A
:103B2000F0010122384601F0FDF84FF40040FFF7A4
:103B3000ABFF00284BD10A20FEF78CFD4FF400406C
:103B4000FFF7A2FF40BB01F0C3FA00210220FEF7FD
:103B5000E1FD05464DB3287800F00F010220FEF785
:103B6000D9FD0446C4B1287800F00F00401EC7B24A
:103B7000207800F0F00098B1207800F00F0020705D
:103B8000207800F00F010122384601F0CBF800F058
:103B900089FA10B100F09AFA0FE000F08DFA0CE00B
:103BA000287800F00F00287007E000F07BFA10B1D1
:103BB00000F08CFA01E000F07FFA02E0C820FEF786
:103BC00049FD4FF40040FFF75FFF0028F6D04FF4A7
:103BD0008060FFF759FF70BB0A20FEF73BFD4FF4F2
:103BE0008060FFF751FFF8B901F072FA002102205E
:103BF000FEF790FD0546C5B1287800F00F010220C0
:103C0000FEF788FD04467CB1287800F00F00401EC6
:103C1000C7B2207840F0F0002070207800F0F0016A
:103C20000122384601F07EF808E000F03BFA18B1B6
:103C300000F04CFA02E00BE000F03EFA02E0C8208F
:103C4000FEF708FD4FF48060FFF71EFF0028F6D056
:103C50004FF40060FFF718FF002870D10A20FEF72C
:103C6000F9FC4FF40060FFF70FFF00285DD101F071
:103C70002FFA00210220FEF74DFD0546002D4CD005
:103C8000287800F00F010220FEF744FD0446002CC6
:103C90004BD04AD0287800F00F00401EC7B22078E1
:103CA00000F0F000C0B36068FCF757FCC6B227B163
:103CB000012F0CD0022F22D117E03C2E01DA701D0B
:103CC00000E00520C6B2304601F096FA18E0782EE2
:103CD00002DA06F10A0000E01E20C6B23046FEF706
:103CE000F5FF304601F072FA0AE0042E01DA701C8A
:103CF00000E00120C6B2304601F04CFA00E000BFFF
:103D000000BF207800F0F0010122384601F00AF8E7
:103D10003046FCF7F7FB606007E000F0C3F910B134
:103D200000F0D4F901E000F0C7F902E0C820FEF786
:103D300091FC4FF40060FFF7A7FE0028F6D04FF487
:103D40000050FFF7A1FE002871D10A20FEF782FC87
:103D50004FF40050FFF798FE00285ED101F0B8F94B
:103D600000210220FEF7D6FC0546A5B3287800F016
:103D70000F010220FEF7CEFC04466CB364B320783A
:103D800000F0F000207038B3287800F00F00401EDB
:103D9000C7B26068FCF7E1FBC6B227B1012F0CD0B7
:103DA000022F24D119E0052E01DD701F00E03C2018
:103DB000C6B2304601F020FA1AE01E2E02DDA6F14E
:103DC0000A0000E07820C6B23046FEF77FFF30469A
:103DD00001F0FCF90CE018E01FE0012E01DD701E7F
:103DE00000E00420C6B2304601F0D4F900E000BF84
:103DF00000BF207800F0F0010122384600F092FF69
:103E00003046FCF77FFB606007E000F04BF910B133
:103E100000F05CF901E000F04FF902E0C820FEF785
:103E200019FC4FF40050FFF72FFE0028F6D000BF1A
:103E30004FE62DE9F041FEF7E7FC58B900210846AE
:103E4000FEF768FC04462CB1207800F002002070D8
:103E5000BDE8F08100210846FEF75CFC0446C4B1D1
:103E6000207800F08000A0B1FEF755FB207800F02C
:103E70007F00207000210220FEF74CFC064646B170
:103E8000307800F00F00401EC7B20121384600F024
:103E900099FF4FF40040FFF7F7FD30BB0A20FEF713
:103EA000D9FB4FF40040FFF7EFFDA0B901F010F986
:103EB00000210846FEF72EFC044624B1207800F0CD
:103EC0008200207007E000F0EDF810B100F0FEF87D
:103ED00001E000F0F1F802E0C820FEF7BBFB4FF470
:103EE0000040FFF7D1FD0028F6D04FF48060FFF7C7
:103EF000CBFD00284CD10A20FEF7ACFB4FF48060CC
:103F0000FFF7C2FD88BB01F0E3F800210220FEF7B5
:103F100001FC044654B321780220FEF7FBFB064661
:103F20001EB3207800F00F00401EC7B2207840F08A
:103F3000F000207000221146384600F0F3FE1020F9
:103F400000F0E1FB4FF4FA70FEF784FB01E0FFF7AD
:103F5000A5FD207800F0F0000028F8D100213846B7
:103F600000F030FF082000F0CEFB07E000F09AF8E8
:103F700010B100F0ABF801E000F09EF802E0C820BC
:103F8000FEF768FB4FF48060FFF77EFD0028F6D057
:103F90004FF40060FFF778FD80BB0A20FEF75AFB64
:103FA0004FF40060FFF770FDF0B901F091F80021C7
:103FB0000220FEF7AFFB044674B1207800F00F0535
:103FC000012D01DD681E00E00320C5B2681E01213D
:103FD00000F0F8FE257007E000F064F810B100F082
:103FE00075F801E000F068F802E0C820FEF732FB47
:103FF0004FF40060FFF748FD0028F6D04FF4005062
:10400000FFF742FD80BB0A20FEF724FB4FF400506F
:10401000FFF73AFDF0B901F05BF800210220FEF74E
:1040200079FB044674B1207800F00F05032D01DA06
:10403000681C00E00120C5B2681E012100F0C2FE2C
:10404000257007E000F02EF810B100F03FF801E015
:1040500000F032F802E0C820FEF7FCFA4FF40050FE
:10406000FFF712FD0028F6D000BFF1E608B50121E8
:104070001020FDF70FFA4FF40050ADF800000320B8
:104080008DF8020010208DF8030069460448FCF703
:1040900024FF4FF400510248FDF704F808BD00006A
:1040A0000010014010B54FF400510248FCF7F1FF39
:1040B00010BD00000010014010B54FF4005102483F
:1040C000FCF7F2FF10BD00000010014010B54FF4E6
:1040D00000510248FCF7E6FF10BD0000001001404F
:1040E000FEF796FA4FF47A70FEF7B4FAFFF7BEFFC8
:1040F00000F0A6FA00F064FAFEF744FFFEF7CEFBEC
:10410000FEF7ACFB01F05AF900F05AF8FCF73FFD5E
:1041100001221146002000F0C7FD01E0FFF7BFFAC1
:10412000FCE70000F0B50B30154D20F0070100242E
:10413000144A0FE003688B420BD38B4205D95E1AF9
:1041400043184768C3E9006700E04368136002C092
:1041500004E0021D10680028ECD12046002802D19E
:10416000286808B10020F0BD064A07481060074AD9
:10417000121A22F00702C0E9002401202860D7E7C4
:104180000404002000040020240D0020200F002043
:1041900010B50723012211460848FCF781FC0121D4
:1041A0000648FCF7DEFC00BF02210448FCF73CFC9B
:1041B0000028F9D00148FCF733FC10BD0024014071
:1041C00000B587B001214FF40170FDF763F90220BB
:1041D000ADF8180003208DF81A0000208DF81B00A0
:1041E00006A91A48FCF779FE4FF40040FDF726F9BE
:1041F0001748FCF7DDFB002001908DF808008DF8D2
:1042000009004FF4602003900020049001208DF8F5
:10421000140001A90E48FCF71BFC01210C48FCF717
:10422000BCFB0B48FCF798FC00BF0948FCF705FCF9
:104230000028FAD10648FCF79FFC00BF0448FCF7B1
:10424000E5FB0028FAD107B000BD000000080140DE
:10425000002401402DE9F05F0746884692469946C2
:10426000DDF828B001F0D9F807EB0A00802803DD5B
:10427000C7F1800000F0FF0A08EB0900082803DD01
:10428000C8F1800000F0FF09BBF1100F33D1002608
:104290002CE044461CE03D460AE0A14800EBC41176
:1042A000681C085C9E4901EBC4114855681CC5B2E6
:1042B00007EB0A00401EA842EFDC9A4800EBC4104E
:1042C000B919405C964901EBC4114855601CC4B251
:1042D00008EB0900A042DEDC0B9896FBF0F100FB36
:1042E000116008B900F07EFA701CC6B25645D0DBEA
:1042F00000F078FA10E1BBF1080F36D100262FE06C
:1043000044461FE007EB0A00401EC5B20AE084489D
:1043100000EBC411681E085C814901EBC4114855CB
:10432000681EC5B2BD42F2DC7E4800EBC41107EB4B
:104330000A00401E801B085C794901EBC4114855F6
:10434000601CC4B208EB0900A042DBDC0B9896FBB2
:10435000F0F100FB116008B900F044FA701CC6B21D
:104360005645CDDB00F03EFAD6E0BBF1010F63D13C
:1043700000265BE03D464BE044461BE0684800EB0E
:10438000C410405D4010664901EBC41148556449B2
:10439000601C01EBC010405D00F0010040B1084618
:1043A00000EBC410405D40F0800001EBC4114855A3
:1043B000601CC4B208EB0900401EA042DEDC584875
:1043C00000EBC410405D4010554901EBC411485545
:1043D000F21706EB527208EBE202524B03EBC212E9
:1043E000525DF31706EB5373DB10A6EBC30C0123EE
:1043F00003FA0CF31A404AB1494800EBC410405D7F
:1044000040F08000464901EBC4114855681CC5B214
:1044100007EB0A00A842AFDC0B9896FBF0F100FB1B
:10442000116008B900F0DEF9701CC6B2B6EBC90F16
:10443000A0DB00F0D7F96FE0BBF1800F68D1002658
:1044400060E03D4650E008EB0900401EC4B21CE0AD
:10445000334800EBC410405D4006000E304901EBCC
:10446000C4114855601E2E4901EBC010405D00F09C
:10447000800040B1084600EBC410405D40F00100F0
:1044800001EBC4114855601EC4B24445E0DC244829
:1044900000EBC410405D4006000E214901EBC41141
:1044A0004855F21706EB5272D31008EB0902521E60
:1044B000D21A1C4B03EBC212525DF31706EB537377
:1044C000DB10A6EBC30C802343FA0CF31A404AB16D
:1044D000134800EBC410405D40F00100104901EBAF
:1044E000C4114855681CC5B207EB0A00A842AADCF3
:1044F0000B9896FBF0F100FB116008B900F072F91F
:10450000701CC6B2B6EBC90F9BDB00F06BF903E081
:1045100000F06CF800F066F900F086FFBDE8F09F4F
:10452000D0040020D00800202DE9F04104460D46BB
:104530001746284600F0E8FB3C441F4850F8250089
:10454000807A801EA04200D13C44002F08DD1A482A
:1045500050F82500807A401EA04208DA002406E0C8
:10456000002C04DA144850F82500807A441E002CF0
:104570001BDB114850F82500807A401EA04214DB56
:1045800020074FEA106800260DE008F1300081197D
:104590000A48405C40F0800108F130008219074869
:1045A0008154701CC6B2102EEFDB00F01FF800F033
:1045B00019F92046BDE8F081B8030020D00A002098
:1045C00000B50020FEF792F800BD00000146002073
:1045D00006E00022044B03EBC1131A54421CD0B274
:1045E0008028F6DB70470000D008002000200FE094
:1045F000002109E0084A02EBC012525C074B03EBB2
:10460000C0135A544A1CD1B28029F3DB421CD0B2E9
:104610000828EDDB70470000D0080020D0040020FF
:1046200070B505460C46FFF7CBFF284600F018FB97
:10463000284600F0B9F914B1204600F0FBFB70BD2C
:1046400010B5FDF76FFAFDF79BFF00F045FE4FF444
:10465000FA70FDF7FFFFAE2000F0BCFC002000F078
:10466000B9FC102000F0B6FC402000F0B3FCB020F4
:1046700000F0B0FC812000F0ADFCFF2000F0AAFCAF
:10468000A12000F0A7FCA62000F0A4FCA82000F0C8
:10469000A1FC3F2000F09EFCC82000F09BFCD32032
:1046A00000F098FC002000F095FCD52000F092FC72
:1046B000802000F08FFCD82000F08CFC052000F05A
:1046C00089FCD92000F086FCF12000F083FCDA2080
:1046D00000F080FC122000F07DFCDB2000F07AFC72
:1046E000302000F077FC8D2000F074FC142000F0E6
:1046F00071FC202000F06EFC002000F06BFCAF206D
:1047000000F068FC10BD1CB50446802C01D0012CC3
:1047100009D10520072380220121CDE90040002096
:10472000FFF798FD11E0102C01D0082C09D10920C9
:10473000072380220121CDE900400020FFF78AFDF8
:1047400003E0FFF753FF00F04DF81CBD10B5044621
:10475000204600F0D9FA204600F018F900F002F8DF
:1047600010BD000000B5064A0421084600F06FFBAA
:10477000034A521D0721042000F069FB00BD000020
:10478000F06000082DE9F041044604EB4401134AAF
:1047900002EB8100FBF7C6FC00EB40004006070E71
:1047A000C7F17F0000EBD071C1F347080126002557
:1047B00006E000200A4901EBC6114855681CC5B245
:1047C000802DF6DB04EB4400044901EB8002314606
:1047D000404600F03CFBBDE8F0810000D8600008D6
:1047E000D008002070B54026FEF70EF800B970BD65
:1047F000B02000F0EFFB002000F0ECFB102000F0F8
:10480000E9FB00BF4FF400312448FCF7A7FC002867
:10481000F8D101212148FCF789FC00BF20491F483D
:10482000FCF746FC0028F9D0002278211B48FCF751
:1048300029FD00BF1B491948FCF73AFC0028F9D0B4
:1048400031461648FCF727FD00BF1649891E13485C
:10485000FCF72EFC0028F8D0002416E0002510E01C
:10486000114800EBC410415D0C48FCF714FD00BF7B
:104870000C49891E0948FCF71BFC0028F8D0681C6D
:10488000C5B2802DECDB601CC4B2082CE6DB012134
:104890000248FCF757FC00BFA9E7000000540040A5
:1048A0000100030082000700D004002010B50E4A6A
:1048B000D27802F00F01042900DD0421002009E074
:1048C0000A4A02EB0112135C00F17002084CA35477
:1048D000421CD0B21028F3DB034AD27802F07F02E8
:1048E000014BDA7010BD0000B4030020FC5D00082D
:1048F000D00800202DE9F04103460C46062501268C
:10490000A2F12007FAB2002019E0002113E01718E5
:1049100007EB4707DFF830C00CEB47077F5C04EB81
:10492000000CDFF8288008EBCC1C03EB01080CF826
:1049300008704F1CF9B2A942E9DB471CF8B2B0423B
:10494000E3DBBDE8F081000034540008D00800200B
:104950000B4A127802F00101002007E0094A02EB3D
:10496000C102125C084B1A54421CD0B20828F5DB75
:10497000034A127802F07F02014B1A707047000060
:10498000B40300204C5E0008D008002010B5044697
:10499000044850F82400021D23460621302000F070
:1049A00069FA10BDC00300202DE9F84F02464FF010
:1049B000030ACDF800A020244FF0040C04EB440BB4
:1049C000CBF1800A0AEBDA7BCBF34705022712B959
:1049D000DDF800A001E0A2F1010A0AF0FF08164686
:1049E000DDF800A0524502D14FF0000A01E002F1CB
:1049F000010A0AF0FF09002300201DE0002115E054
:104A0000DFF8D8A00AEBC81A0AEB401A1AF801A07E
:104A100007EB000BDFF8C8E00EEBCB1B03EB010E3E
:104A20000BF80EA001F1010A0AF0FF01A142E7DB39
:104A300000F1010A0AF0FF006045DFDB05F1200A02
:104A40000AF0FF0300201DE0002115E0DFF88CA034
:104A50000AEBC61A0AEB401A1AF801A007EB000B82
:104A6000DFF87CE00EEBCB1B03EB010E0BF80EA086
:104A700001F1010A0AF0FF01A142E7DB00F1010A9E
:104A80000AF0FF006045DFDB4FF0400A0AEB450A01
:104A90000AF0FF0300201DE0002115E0DFF83CA034
:104AA0000AEBC91A0AEB401A1AF801A007EB000B2F
:104AB000DFF82CE00EEBCB1B03EB010E0BF80EA086
:104AC00001F1010A0AF0FF01A142E7DB00F1010A4E
:104AD0000AF0FF006045DFDBBDE8F88F6C5E000880
:104AE000D00800202DE9FF5F04468B4600F095FCBE
:104AF000032001904FF0200A042000900AEB4A01A5
:104B0000C1F1800000EBD071C1F347084FF00009FC
:104B100002270CB9019800E0601EC0B20390019812
:104B2000844201D1002000E0601CC0B20290BBF1C1
:104B3000100F42D1002439E03D4628E04E460AE0FD
:104B4000454800EBC511701C085C434901EBC511D9
:104B50008855701CC6B209F17F00B042F0DC4445B4
:104B600005DA00203C4901EBC51188550DE03B49B1
:104B7000029801EBC010E91B00EB4110A4EB080107
:104B8000405C354901EBC5118855681CC5B20098D9
:104B90003844A842D2DCE11704EB91718910A4EBF0
:104BA000810109B9FFF71EFE601CC4B20AEB0800C0
:104BB000A042C1DCFFF716FE4AE0BBF1080F44D16A
:104BC00000243BE03D462AE009F17F00C6B20AE03E
:104BD000214800EBC511701E085C1F4901EBC5118F
:104BE0008855701EC6B24E45F2DC444505DA0020F9
:104BF000194901EBC51188550FE01849039801EBDD
:104C0000C010E91B00EB4111AAEB04004044401E18
:104C1000085C114901EBC5118855681CC5B20098A4
:104C20003844A842D0DCE11704EB91718910A4EB61
:104C3000810109B9FFF7D6FD601CC4B20AEB080078
:104C4000A042BFDCFFF7CEFD02E00020FFF75BFDD6
:104C500000F0EAFBBDE8FF9FD00400206C5E000876
:104C60002DE9F041044604EBC4010E4A8818FBF715
:104C700059FA00EB40004006070E00BFC7F1800064
:104C800000EBD071C1F3470607252846FFF79EFCCD
:104C900004EBC400034942182946304600F0D7F817
:104CA000BDE8F081B460000870B505460E461446B4
:104CB000FFF786FC2846FFF765FD2846FFF746FD0F
:104CC000204600F0B7F870BD10B50C4A527802F0DB
:104CD0000101002009E00A4A02EBC102135C00F165
:104CE0001002084CA354421CD0B20828F3DB034A3C
:104CF000527802F07F02014B5A7010BDB4030020BD
:104D00005C5E0008D008002010B50446044850F846
:104D10002400021D23460321302000F0ABF810BD13
:104D2000B80300202DE9F04104460D461646FFF772
:104D300047FC04EB4401214A02EB8100FBF7F2F946
:104D400000EB40008021A1EB4000C0F347074FF08B
:104D5000020804EB4400194901EB80024146384641
:104D600000F075F8164951F82410481CFBF7DAF9E1
:104D700000EB40008021A1EB4000C0F347074FF05B
:104D800005080F4850F82400421C4146384600F000
:104D90005EF8A7F10800C7B22DB13E224146384661
:104DA000FFF7A8FD04E0202241463846FFF7A2FDA8
:104DB000304600F03FF8BDE8F0810000FA600008DE
:104DC000000D00202DE9F04105460F464FF0100878
:104DD0000226FFF7F5FB00241EE0002D07DBAC42A6
:104DE00005D111A23146002000F031F804E00FA2F5
:104DF0003146002000F02BF804EB44000C4901EB95
:104E000080023146404600F022F8B01CC6B2072EA0
:104E100000DB03E0601CC4B2032CDEDB00BF3846BD
:104E200000F008F8BDE8F0813D3E000020200000C1
:104E3000FA60000810B50446FFF78AFDFFF744FF4B
:104E4000FFF734FD14B10020FFF75DFC10BDF0B595
:104E500006460F461446002508E0625D3946304696
:104E6000FFF748FDB01DC6B2681CC5B2605D0028E2
:104E7000F3D1F0BD2DE9F04F04460D4690461E4695
:104E80004FF0100C0222002735E018F8073003B964
:104E900033E0A3F1300A0AF0FF092E2B01D14FF0C5
:104EA0000A0900201DE0002115E009FB020ADFF8D5
:104EB000E0B00BEB0A1A1AF801A005EB000BDFF8C3
:104EC000D4E00EEBCB1B04EB010E0BF80EA001F1AE
:104ED000010A0AF0FF016145E7DB00F1010A0AF06F
:104EE000FF009042DFDB04F1100A0AF0FF0407F133
:104EF000010A0AF0FF07052FC7DB00BF012E01DD05
:104F0000BDE8F08F00201DE0002115E006FB020A3D
:104F1000DFF884B00BEB0A1A1AF801A005EB000BBE
:104F2000DFF870E00EEBCB1B04EB010E0BF80EA0CC
:104F300001F1010A0AF0FF016145E7DB00F1010A16
:104F40000AF0FF009042DFDB04F1100A0AF0FF04D0
:104F5000802C1BDA002017E000210FE04FF0000A40
:104F600005EB000BDFF82CE00EEBCB1B04EB010E86
:104F70000BF80EA001F1010A0AF0FF016145EDDB1B
:104F800000F1010A0AF0FF009042E5DB00BFB7E73D
:104F90004C5C0008D0080020AC5D000810B5054846
:104FA000007828B1AE2000F015F800200149087003
:104FB00010BD0000E003002010B50548007828B9B6
:104FC000AF2000F007F801200149087010BD000073
:104FD000E003002010B5044621460020FCF7E8FD60
:104FE00010BD00002DE9FF47FFF75CF810B1FFF797
:104FF0006DF801E0FFF760F8FBF7B9FE00F018006C
:10500000182804D0FBF7DEFE0A20FBF72FFF02A8CA
:10501000FBF724FE64220299514301EB8101C1F3A5
:105020005520FBF774FA07460022264BFBF7F2F9EE
:105030000546FBF7A6FA0446C8220399514301EB43
:105040008101C1F35520FBF762FA054600221D4B92
:10505000FBF7E0F9074600221B4BFBF763F9CDE9AC
:105060000001FBF78EFA81464846FBF750FA0746E7
:105070000022164BFBF7CEF90546FBF7FDFA8246F8
:105080004FF07E515046FBF71DFB03D200215046E6
:1050900000F024F82046FBF73AFA074600220B4BB3
:1050A000FBF7B8F90546FBF7E7FA82464FF07E5169
:1050B0005046FBF707FB03D20121504600F00EF8E3
:1050C000BDE8FF870000904000407F400000244082
:1050D0000020014908807047F80300202DE9F041C5
:1050E00005460C460E4850F8240005602846FBF79C
:1050F00080FA06460B460A4951F82410081D32462C
:1051000008A1FCF79BFD064951F82410081DFBF788
:1051100009F8034951F824108872BDE8F0810000B5
:10512000C0030020252E3166000000002DE9F0416B
:1051300005460C460E4850F8240005602846FBF74B
:1051400058FA06460B460A4951F82410081D324603
:1051500008A1FCF773FD064951F82410081DFAF761
:10516000E1FF034951F824108872BDE8F081000086
:10517000B8030020252E3166000000000149C870E8
:1051800070470000B4030020014908707047000018
:10519000B403002010B504460A48047022460AA150
:1051A000401CFCF74BFD0748401CFAF7BBFF0549C4
:1051B000C8718120FFF70EFF2107080EFFF70AFFD5
:1051C00010BD0000D80300202564000010B504467F
:1051D00006480470224606A1401CFCF72FFD034838
:1051E000401CFAF79FFF0149C87110BDD003002091
:1051F000256473000000000010B5044606480470E2
:10520000224606A1401CFCF719FD0348401CFAF792
:1052100089FF0149C87110BDC803002025647300CF
:10522000000000000149087070470000FC030020E6
:105230002DE9F04700210220FDF76CFA0446012019
:1052400020700320FDF774F9E060E06800283ED08C
:1052500001210220FDF75EFA044600202070FDF7D0
:10526000B7FA8146FBF753F907460022194BFBF7C3
:105270005FF80546FBF700FA606002210846FDF77B
:1052800049FA044600202070FDF79CFA8146FBF79E
:105290003EF9074600220F4BFBF74AF80546FBF79D
:1052A000EBF9606003210220FDF734FA0446002088
:1052B0002070FDF781FA8146FBF729F907460022A5
:1052C000044BFBF735F80546FBF7D6F96060BDE8FF
:1052D000F08700000000F03F80200349087048700C
:1052E0008870C87070470000B40300202DE9F04FAB
:1052F00087B0FEF74DFF05900598FBF708F980464B
:10530000244A254BFBF714F800224FF08043CDE9E7
:105310000001FBF70DF8214A214BCDE90201FBF713
:1053200001F8064600221F4BFBF702F804464FF037
:1053300033321D4BFAF7FCFF8246FBF79DF90490D0
:105340001A490498FBF7BEF903D80420FFF716FFAB
:105350001DE017490498FBF7B5F903D80320FFF7C0
:105360000DFF14E013490498FBF7ACF903D80220B1
:10537000FFF704FF0BE010490498FBF7A3F903D8EB
:105380000120FFF7FBFE02E00020FFF7F7FE07B069
:10539000BDE8F08FB4D934E70C684A3FCDCCCCCC13
:1053A000CCCCFC3F00002440333311400000A0422D
:1053B000000020420000A041000020411FB5012153
:1053C0000846FCF747F80020ADF80A00ADF80600E3
:1053D00041F28730ADF8080041F61F40ADF80400F7
:1053E00001A94FF08040FCF7D5FA01221146900741
:1053F000FCF7C6FA1C208DF8000001208DF8030090
:1054000000208DF801008DF802006846FBF7DCFFF4
:1054100001218807FCF797FA1FBD10B500214FF056
:105420008040FCF790FA10BD10B501218807FCF709
:105430008AFA10BD0000000000000000002F0000EC
:1054400000000700070000147F147F1400242A7F47
:105450002A120062640813230036495522500000C6
:105460000503000000001C224100000041221C0036
:105470000014083E08140008083E0808000000A0B8
:1054800060000008080808080000606000000020B4
:1054900010080402003E5149453E0000427F400092
:1054A000004261514946002141454B310018141218
:1054B0007F10002745454539003C4A4949300001E5
:1054C0007109050300364949493600064949291E34
:1054D0000000363600000000563600000008142296
:1054E0004100001414141414000041221408000296
:1054F0000151090600324959513E007C1211127CBB
:10550000007F49494936003E41414122007F4141E7
:10551000221C007F49494941007F09090901003ED9
:105520004149497A007F0808087F0000417F410017
:10553000002040413F01007F08142241007F40408D
:105540004040007F020C027F007F0408107F003E75
:105550004141413E007F09090906003E4151215E5B
:10556000007F091929460046494949310001017F58
:105570000101003F4040403F001F2040201F003FEE
:105580004038403F006314081463000708700807A0
:1055900000615149454300007F41410000552A55B3
:1055A0002A55000041417F0000040201020400402E
:1055B0004040404000000102040000205454547850
:1055C000007F484444380038444444200038444470
:1055D000487F00385454541800087E09010200180E
:1055E000A4A4A47C007F080404780000447D40004B
:1055F000004080847D00007F102844000000417F2F
:105600004000007C04180478007C0804047800380A
:105610004444443800FC242424180018242418FC92
:10562000007C0804040800485454542000043F44FB
:105630004020003C4040207C001C2040201C003CBE
:105640004030403C004428102844001CA0A0A07C0E
:10565000004464544C441414141414140000000046
:10566000000000000000000000000000000000F842
:1056700000000000000000333000000000100C06A5
:10568000100C0600000000000000000040C0784040
:10569000C0784000043F04043F040400007088FC0C
:1056A00008300000001820FF211E0000F008F00064
:1056B000E018000000211C031E211E0000F00888D5
:1056C000700000001E2123241927211010160E003F
:1056D000000000000000000000000000000000E0EA
:1056E00018040200000000071820400000020418FF
:1056F000E00000000040201807000000404080F05B
:10570000804040000202010F01020200000000F090
:10571000000000000101011F010101000000000064
:105720000000000080B070000000000000000000D9
:105730000000000000010101010101010000000062
:1057400000000000003030000000000000000000F9
:1057500080601804006018060100000000E01008D6
:105760000810E000000F102020100F00001010F8AB
:10577000000000000020203F2020000000700808EA
:10578000088870000030282422213000003008886A
:10579000884830000018202020110E000000C02092
:1057A00010F8000000070424243F240000F80888B3
:1057B000880808000019212020110E0000E0108840
:1057C00088180000000F112020110E000038080872
:1057D000C83808000000003F000000000070880882
:1057E00008887000001C222121221C0000E0100803
:1057F0000810E0000000312222110F00000000C05C
:10580000C0000000000000303000000000000080F8
:1058100000000000000080600000000000008040E8
:105820002010080000010204081020004040404001
:105830004040400004040404040404000008102054
:105840004080000000201008040201000070480899
:105850000808F0000000003036010000C030C82801
:10586000E810E0000718272423140B000000C038BC
:10587000E0000000203C23020227382008F8888836
:1058800088700000203F202020110E00C030080842
:1058900008083800071820202010080008F8080819
:1058A0000810E000203F202020100F0008F8888812
:1058B000E8081000203F20202320180008F88888DE
:1058C000E8081000203F200003000000C030080856
:1058D0000838000007182020221E020008F80800DF
:1058E0000008F808203F210101213F20000808F8A6
:1058F000080800000020203F2020000000000808C9
:10590000F8080800C08080807F00000008F888C088
:1059100028180800203F20012638200008F8080039
:1059200000000000203F20202020300008F8F80070
:10593000F8F80800203F003F003F200008F830C082
:105940000008F808203F200007183F00E010080872
:105950000810E0000F10202020100F0008F80808A1
:105960000808F000203F210101010000E0100808B4
:105970000810E0000F18242438504F0008F88888D9
:1059800088887000203F2000030C302000708808B9
:10599000080838000038202121221C00180808F8C7
:1059A000080818000000203F2000000008F8080048
:1059B0000008F808001F202020201F000878880019
:1059C00000C83808000007380E010000F80800F889
:1059D0000008F800033C0700073C03000818688033
:1059E0008068180820302C03032C30200838C800A9
:1059F000C83808000000203F2000000010080808F8
:105A0000C83808002038262120201800000000FE99
:105A1000020202000000007F40404000000C30C045
:105A200000000000000000010638C0000002020271
:105A3000FE000000004040407F0000000000040223
:105A4000020204000000000000000000000000004E
:105A5000000000008080808080808080000202043E
:105A60000000000000000000000000000000808036
:105A7000808000000019242222223F2008F80080A4
:105A800080000000003F112020110E000000008067
:105A900080800000000E11202020110000000080F6
:105AA0008088F800000E112020103F200000808028
:105AB00080800000001F222222221300008080F03C
:105AC000888888180020203F202000000000808067
:105AD00080808000006B94949493600008F80080AC
